:020000040800F2
:100000008007002001010008973200082D2A00080F
:1000100095320008C90B0008C53C0008000000002C
:10002000000000000000000000000000B1360008E1
:10003000CB0B000800000000853600085937000887
:100040001B0100081B0100081B0100081B01000820
:100050001B0100081B0100081B0100081B01000810
:100060001B0100081B0100081B0100081B01000800
:100070001B0100081B0100081B0100081B010008F0
:100080001B0100081B0100081B0100081B010008E0
:100090001B0100081B0100081B0100081B010008D0
:1000A0001B0100081B0100081B0100081B010008C0
:1000B0001B010008E13700081B0100081B010008B4
:1000C0001B0100081B0100081B0100081B010008A0
:1000D0001B0100081B010008B93C00081B010008B7
:1000E0001B0100081B0100081B010008DFF80CD0F1
:1000F00000F072FC004800475158000880070020BB
:100100000648804706480047FEE7FEE7FEE7FEE7B1
:10011000FEE7FEE7FEE7FEE7FEE7FEE7DD37000865
:10012000ED0000082DE9F0410024061B254671F181
:10013000000605DA01240027D0EB070067EB010178
:10014000161E73F1000605DA0027D2EB070201251F
:1001500067EB030300F05AFB86460E4617469C46A3
:10016000AC4204D00025D0EB050E65EB010624B1AE
:100170000020D2EB000760EB030C704631463A4694
:100180006346BDE8F081202A04DB203A21FA02F020
:100190000021704721FA02F3D040C2F120029140C1
:1001A000084319467047D2B201E000F8012B491EFE
:1001B000FBD270470022F6E710B513460A46044604
:1001C0001946FFF7F0FF204610BD30B50446002069
:1001D000034600E05B1C934203D2E05CCD5C401B15
:1001E000F8D030BDF0B480EA0102D40F4200B2EB87
:1001F000410F02D20246084611464A0042D0C30DC2
:10020000DDB2C1F3C752AD1A202D35DAC1F31601A4
:1002100041F4000204B15242C5F1200602FA06F18F
:100220002A411044B3EBD05F23D0C4B1012DA0EB21
:10023000C35009DCF0BC4FF0004202EAC352DBB20B
:1002400000F5000000F03DBB400000F1807000EBC5
:10025000C350A0F1807040EAD170490009E049081C
:1002600041EAC071A0EBC35000F50000400800EB6C
:10027000C350F0BC00F01CBB6142012202EB410103
:10028000001BF6E7F0BC704781F00041AAE780F060
:100290000040A7E780EA010210B502F000434000E9
:1002A00022D04A001FD0010E01EB1261C0F35600AC
:1002B000C2F3560240F4000042F40002A0FB022008
:1002C00000047F39140400D0401C50EA124001D4CD
:1002D0004000491EC2B20C0604EBD010401C40087E
:1002E000802A02D003E0002010BD20F00100002988
:1002F00000DA0020184310BD30B480EA010202F099
:10030000004530F0004221F0004013D090B1C30D01
:10031000D40DC2F31601C0F31600E41A41F4000133
:1003200040F400027D34914201D3641C00E0490096
:10033000002C02DA30BC002070474FF4000000238C
:10034000914201D3891A034340084FEA4101F7D192
:1003500051B1914202D14FF0004105E002D24FF07D
:10036000010101E06FF0010103EBC450284430BCEF
:1003700000F09EBA420005D0C0F3C75252429142EB
:1003800001DC0020704700EBC15070472DE9FE4FA3
:10039000804681EA0300C00F0C46009021F0004126
:1003A00023F00045B8EB0200A94105D240462146A2
:1003B00090461C460B46024623F00040104347D0AF
:1003C000270DC7F30A00C3F30A510290401A0190A7
:1003D00040286BDAC3F3130040F4801B0098924668
:1003E00020B10023D2EB030A63EB0B0B01985946B3
:1003F000C0F14002504600F03AFA06460D4650461B
:100400005946019A00F042FA10EB080061410024BD
:1004100087EA115284EAE7731A4340D0009A62B324
:10042000019A012A4FEA075215DC001B61EB020119
:100430004FF0004202EA0752CDE90042001C41F5AC
:10044000801132462B4600F079FA03B0BDE8F08FF8
:1004500040462146F9E7001B61EB0201001C41F513
:10046000801300185B412018A2F5001747EB030129
:1004700040EAD570B6196D4111E06D084FEA3606B5
:1004800045EAC0754FEA0752001B61EB0201001CF0
:1004900041F5801149084FEA3000001951413246B8
:1004A0002B4603B0BDE8F04F00F039BA00980122A6
:1004B00040000023D0EB020263EBE073009821467A
:1004C0004FEAE074B8EB000061EB0401E9E783F068
:1004D00000435BE781F0004158E72DE9FE4F81EAD8
:1004E000030404F0004421F0004100944FF0000B9D
:1004F00023F0004350EA01045ED052EA03045BD0CB
:10050000C3F30A54C1F30A552C44A4F2F334019402
:10051000A0FB0254C1F3130141F48011C3F3130390
:1005200043F4801301FB024400FB034E840A970A44
:1005300044EA815447EA8357A4FB076802958D0A71
:1005400005FB07854FEA932C04FB0C542705029DFD
:100550004FEA065847EA1637B5EB08056EEB070C6D
:10056000870E920E47EA811742EA8312A7FB020127
:10057000B6EB0B0164EB00042B0D43EA0C335E1861
:1005800044EB1C50DA465146E7FB0201C5F3130465
:100590004FEA0B3343EA14534FEA0432019C43EA17
:1005A0000603A4F10C040294009CCDE900B400F011
:1005B000C5F903B0BDE8F08F00200146F9E72DE949
:1005C000F04D81EA030404F0004B21F0004514468D
:1005D0004FF0000A23F0004150EA050220D054EA0F
:1005E00001021DD0C5F30A570246C5F31303C1F338
:1005F0001300C1F30A5640F4801543F48013A7EBAF
:100600000608101BD64608F2FD3873EB050002D32E
:1006100008F1010801E092185B41B8F1000F03DA1C
:1006200000200146BDE8F08D00204FF48011064601
:1006300084460EE0171B73EB050705D3121B63EB13
:10064000050306434CEA010C49084FEA30009218B2
:100650005B4150EA0107EDD152EA030012D082EA71
:10066000040083EA0501084305D0101BAB4106D204
:100670000122002306E000224FF0004302E06FF069
:10068000010253101AEB06004CEB085110EB0A0064
:1006900041EB0B01BDE8F04D00F041B970B521F020
:1006A000004303430CD0C1F30A550024D5EB0405E5
:1006B00064EB0403D617AD1AB34102DB00200146F8
:1006C00070BD201841EB025170BDC10F80EAE0708F
:1006D0000844CA079623002100F0F3B896230022AD
:1006E000114600F0EEB80EB5C10F80EAE070084484
:1006F000CA07002140F233438DE80E000A460B463C
:1007000000F01CF903B000BD0EB540F23341029178
:100710000021CDE900110A460B4600F00FF903B0A5
:1007200000BD00F0004220F00040C10DC0F31600F3
:1007300040F400007F2901DA00207047962903DC8D
:10074000C1F19601C84001E096398840002AF4D0F2
:100750004042704720F00040C10DC0F3160040F445
:1007600000007F2901DA00207047962903DCC1F1DF
:100770009601C8407047963988407047C1F30A52C5
:1007800010B5C1F3130140F2FF3341F480119A42D6
:1007900001DA002010BD40F233439A42A2F2334204
:1007A00003DC5242FFF7EFFC10BD904010BD00F09B
:1007B000004230F000400AD0C10D01F56071C0F375
:1007C000160042EA0151C208400711437047002059
:1007D0000146704701F0004330B421F0004150EA77
:1007E000010206D00A0DA2F56072C1F31301002ABE
:1007F00002DC30BC00207047440F44EAC104C10051
:10080000E01830BC00EBC25000F052B82DE9F05FA8
:100810000546002092469B4688460646814640246F
:100820001BE02846414647462246FFF7ACFC5346AC
:100830005A46C01A914110D311461846224600F07C
:1008400016F82D1A67EB01084F46224601200021B9
:1008500000F00DF817EB00094E41201EA4F1010431
:10086000DFDC484631462A464346BDE8F09F202A51
:1008700004DB203A00FA02F1002070479140C2F1F7
:10088000200320FA03F3194390407047202A06DB27
:10089000CB17203A41FA02F043EAE07306E041FA4E
:1008A00002F3D040C2F1200291400843194670473C
:1008B0000029A8BF7047401C490008BF20F0010074
:1008C000704710B4B0FA80FC00FA0CF050EA010452
:1008D00004BF10BC704749B1CCF1200421FA04F4E4
:1008E00011FA0CF118BF012121430843A3EB0C01BD
:1008F000CB1D4FEA00614FEA102042BF002010BC20
:10090000704700EBC35010440029A4BF10BC7047CF
:10091000401C490008BF20F0010010BC704710B512
:10092000141E73F1000408DA401C41F10001921812
:100930005B411A4301D120F0010010BD2DE9F04DBB
:1009400092469B4611B1B1FA81F202E0B0FA80F210
:1009500020329046FFF78BFF04460F4640EA0A001C
:1009600041EA0B0153465A46084313D0114653EA55
:10097000010019D0C8F140025046FFF704FC0546BB
:100980000E46504659464246FFF771FF084305D0D0
:10099000012004E020463946BDE8F08D00200543E3
:1009A00046EAE0762C4337430A986305E40AA0EB55
:1009B00008000022FD0A44EA47540A3002D500200C
:1009C0000146E9E7010510196941DDE9084500190B
:1009D0006941BDE8F04DA2E7064C074D06E0E0682E
:1009E00040F0010394E8070098471034AC42F6D376
:1009F000FFF780FB207F0008407F00082DE9F04DC5
:100A000000231A461B1A8A4103DB00200146BDE879
:100A1000F08DC1F30A52C1F3130141F480154FF078
:100A2000000BD10702D100186D41521E0027044669
:100A300040F2FF11384601EB620A3E46804602460C
:100A400000204FF48011FFF79EFBC2197141BB18C3
:100A500046EB0100B4EB030C75EB000C04D3E41A75
:100A600065EB000517460E46241908F101006D419B
:100A700080463428E3DDF91946EB0600091BA8413E
:100A800003D24FF0FF32134601E0002213461BEB66
:100A9000070046EB0A51BDE8F04DFFF740BF70B5C7
:100AA0008C1810F8015B15F0070301D110F8013B19
:100AB0002A1106D110F8012B03E010F8016B01F8A0
:100AC000016B5B1EF9D12B0705D40023521E0DD4F8
:100AD00001F8013BFAE710F8013BCB1A921C03E046
:100AE00013F8015B01F8015B521EF9D5A142D8D37E
:100AF000002070BD70B5044600688168C943C9070D
:100B000017D1816821F00101816000F059FC054690
:100B10000AE000BF00F054FC401B022804D9206802
:100B20008068C043C00706D020688068C043C00703
:100B3000F0D0002070BDA06A40F01000A062E06A12
:100B400040F00100E062012070BD0000F8B5002611
:100B50000446009600688168C943C9072DD08168A2
:100B600041F001018160164816490068B0FBF1F0C0
:100B700000E0401E00900028FBD100F021FC05465B
:100B800016E000BF00F01CFC401B022810D92068B2
:100B90008068C043C0070BD0A06A40F01000A0627C
:100BA000E06A40F00100E06284F824600120F8BDB2
:100BB00020688068C043C007E4D10020F8BD000071
:100BC0003400002040420F00FEE7704772B6FEE797
:100BD00010B5064800F018FA0A21044800F076F92A
:100BE000024800F0B5F880B210BD0000CC01002032
:100BF00070B5002506462C4608E000BFFFF7E8FF69
:100C00000544052000F0D0FA641CE4B2B442F5D3E8
:100C1000B5FBF6F080B2FFF777FD0A4A0A4BFFF703
:100C20005CFC0022094BFFF758FC0022084BFFF741
:100C300054FC6FF00B02FFF731FDFFF79FFD80B210
:100C400070BD00009A999999999913400000264027
:100C500000005940F8B50024009490F8242025465F
:100C6000012A12D0012280F824204A681F23072A73
:100C70000DD20668776B521E02EB820293409F43AF
:100C80000B6893401F43776319E00220F8BD0668A4
:100C90000D2A0AD2376BD21F02EB820293409F4388
:100CA0000B6893401F43376309E0F76A0D3A02EB84
:100CB000820293409F430B6893401F43F7620A6888
:100CC000072306680A2A0AD3F7680A3A02EB4202A7
:100CD00093409F438B6893401F43F76008E0376958
:100CE00002EB420293409F438B6893401F4337615E
:100CF0000A68102A01D0112A20D1124B02689A42A8
:100D000017D193681B0219D4936843F400039360CE
:100D10000968102912D10C490C4A0968B1FBF2F19B
:100D200001EB8101490000E0491E00910029FBD13F
:100D300004E0816A41F020018162012480F824509E
:100D40002046F8BD002401403400002040420F003E
:100D50000068C06C704700002DE9F0414FF00007BB
:100D600004003D467ED0A06A002628B9E66284F8D9
:100D70002460204600F07EF82046FFF7BBFEA16A03
:100D800001F01001014304D0A06A40F01000A062FD
:100D900068E0A16A21F4885141F00201A162626811
:100DA000E169237B0A4347EA43010A43A1684FF400
:100DB0008077B94208D0012906D0002194F814C0E8
:100DC000BCF1010F02D00AE03946F7E7F3B1A36A9C
:100DD00043F02003A362E36A43F00103E362236864
:100DE000D3F804C02CF4694C4CEA010CC3F804C0DD
:100DF00023689968DFF870C001EA0C01114399601B
:100E0000A168B9420BD0012909D00CE0DFF85CC021
:100E1000A3690CEB43330B4343F40061DFE7218A02
:100E20000D05A5F580152168CB6A23F470032B43CB
:100E3000CB62216889680E4B1940914208D1E66265
:100E4000A16A21F0020141F00101A162BDE8F08137
:100E5000A06A20F0020040F01000A062E06A40F0BA
:100E60000100E0620120F1E7FDF7E1FF00E0FFFF94
:100E7000FE0E1FFF00B585B0002100910191029187
:100E8000039100680E49884218D10E48816941F4E7
:100E900000718161816901F400710491816941F0FF
:100EA000040181618069694600F0040004902020FB
:100EB000009003200190044800F088F905B000BDBF
:100EC0000024014000100240000801402DE9F843D1
:100ED00000270D460446009700F072FA804620680D
:100EE0008168C90508D5A06A40F02000A06284F896
:100EF00024700120BDE8F8834168C90503D4C06AA5
:100F000010F4700F2AD0022000F02CFB3B49096836
:100F1000B1FBF0F62068036939490B424FEA6101E1
:100F20004FEAA1121FD1C3684FEA611C13EA0C0FEC
:100F300019D103690B4225D1C068104222D1142077
:100F400023E0681C0AD02DB100F03AFAA0EB0800AB
:100F5000A84203D920680068800725D5206800686A
:100F60008007EED52DE003690B4202D1C168114222
:100F700006D0026923490A4206D1C068084203D15B
:100F8000542002E0292000E0FC204643009816E0AF
:100F9000681C11D02DB100F013FAA0EB0800A84294
:100FA0000AD90098B04207D2A06A40F00400A062BB
:100FB00084F8247003209DE70098401C0090B04204
:100FC000E6D321686FF012000860A06A40F4007058
:100FD000A06220688068C0F3424007280CD1207BC3
:100FE00050B9A06A20F48070A062A06AC00403D443
:100FF000A06A40F00100A06200207BE734000020DE
:10100000244992244992240070B5044690F82400A3
:1010100001280DD0012084F824002046FFF796FD1A
:1010200002004FF0000005D084F82400104670BD87
:10103000022070BDA16A40F20123994341F48071FE
:10104000A1621F4D23681F49AB4218D10E6816F4E8
:10105000702F14D0A66A46F48016A6620E68760534
:1010600005D5A66A26F4005646F48056A662A66AFE
:10107000F6040AD5E66A26F00606E66206E0A66AE7
:1010800026F48016A6625E68E9E7E06284F8240030
:101090006FF00200186020688368C3F34243072B97
:1010A00005D1A84208D1096811F4702F04D08168D5
:1010B00041F480118160B9E7816841F4A001F9E74A
:1010C000002801400424014010B590F821100022AE
:1010D000022905D00421816380F82020012010BD61
:1010E00001680B6823F00E030B6001680B6823F0A6
:1010F00001030B6090F84030C46B012101FA03F347
:10110000636080F8211080F82020104610BD000098
:1011100010B590F821100024022903D00421816326
:1011200001243DE001680A6822F00E020A600168AD
:101130000A6822F001020A601A4A0168914201D14C
:10114000012121E0174A1432914201D110211BE004
:10115000144A2832914201D1891515E0114A3C32D6
:10116000914201D189140FE00E4A5032914202D1CE
:101170004FF4803108E00B4A6432914202D14FF4BF
:10118000801101E04FF08071064A083A5160012158
:1011900080F82110002180F82010416B01B18847B0
:1011A000204610BD0800024070B5044600F008F962
:1011B0000546601C02D004480078044400F000F9A1
:1011C000401BA042FAD370BD280000202DE9F84F43
:1011D000DFF8B891002409F1040A0AF1040B234650
:1011E0000F270BF1040EC9E00125A5402A40AA42B1
:1011F0007DD1674ED1F804C0ACEB0608B44532D0BF
:1012000014DCBCF1030F3AD009DCBCF1000F2AD08A
:10121000BCF1010F1CD0BCF1020F31D11DE0BCF1BB
:10122000110F17D0BCF1120F2AD119E0B8F5881FA1
:1012300019D006DCB8F5803F15D0B8F5801F1FD156
:1012400011E0B8F5001F0ED0B8F5041F18D10AE060
:10125000CB6815E0CB681B1D12E0CB6808330FE0AC
:10126000CB680C330CE08B682BB1012B4FF00803DB
:1012700003D0456104E0042302E0056100E000239F
:10128000FF2A01D8064601E000F104064FEA840572
:1012900001D9A5F12005D6F8008007FA05FC28EA57
:1012A0000C0803FA05F548EA0508C6F800804D6801
:1012B000ED0062D5374DAE6946F00106AE61AD690D
:1012C00024F0030605F001050095334D06EB050CEF
:1012D000DCF80850A607360F07FA06F825EA0805D5
:1012E000DFF8B880404503D14FF0000817E044E034
:1012F000DFF8AC80404502D14FF001080FE0DFF885
:10130000A480404502D14FF0020808E0DFF8988041
:10131000404502D14FF0030801E04FF0040808FAFD
:1013200006F848EA0508CCF808804D68D9F800604E
:10133000ED034D4601D5164300E096432E604D68FF
:10134000DAF80060AD03554601D5164300E0964338
:101350002E604D68DBF80060ED025D4601D5164356
:1013600000E096432E604D68DEF80060AD027546E1
:1013700001D5164300E096432E60641C0D682A4692
:10138000E5407FF431AFBDE8F88F00000004014074
:101390000000111000100240000001400008014050
:1013A000000C01400010014000140140806808401A
:1013B00000D0012070470AB1016170470904FBE7C2
:1013C00001488068704700002800002070B50400C4
:1013D00011D021684CF6CC400860216845F2555088
:1013E0000860D4E9000141602168A0688860FFF7C7
:1013F000E7FF05460DE0012070BD00BFFFF7E0FFED
:10140000401B272805D92068C068800701D0032029
:1014100070BD2068C0688007F0D121684AF6AA2014
:101420000860002070BD00684AF6AA210160002013
:10143000704700000248816802781144816070475B
:1014400028000020074810B5016841F01001016034
:10145000032000F075F80F2000F006F800F024F8E3
:10146000002010BD0020024070B50D4D04464FF421
:101470007A712878B1FBF0F00A490968B1FBF0F005
:1014800000F0C6FB48B9102C07D200222146501E9E
:1014900000F036F800206C6070BD012070BD0000C7
:1014A00028000020340000200C4808B5816941F074
:1014B00001018161816901F001010091C16941F07F
:1014C0008051C161C06900F08050009004484168BB
:1014D00021F0E06141F00071416008BD0010024060
:1014E00000000140002809DB00F01F0201219140AB
:1014F0004009800000F1E020C0F8001170470000B2
:10150000F0B40E4B1B680C46C3F30223C3F107056E
:10151000042D00D90425191D072901D2002300E05C
:10152000DB1E012606FA05F1491E214099409E4026
:10153000761E16403143F0BC02F040BC0CED00E0DA
:10154000064900F0070208684FF6FF03184040EA1A
:101550000220034A10430860704700000CED00E0D1
:101560000000FA0510B529A401461DCC86B08DE80F
:101570001D002AA02A4C006804900020012923D0D5
:1015800002293AD010291DD161682268D20119D5EB
:10159000C1F38342C9031DF8020009D5616804AA9A
:1015A000C1F34041515C1F4AB2FBF1F1484301E0F5
:1015B0001D4948436168490204D440005FF00301BB
:1015C000B0FBF1F006B010BD226AC2F3012101297F
:1015D00003D1920701D5C803F4E7022905D1626A55
:1015E000920702D549F64040ECE70329EAD1216889
:1015F0008903E7D54FF22440E4E700F033F961684E
:10160000C1F38131491C4900DAE7000002030405F7
:10161000060708090A0B0C0D0E0F1010010200003E
:101620000010024000127A0000093D002DE9F84345
:1016300005460078354CC00754D0E0690026C0004C
:1016400008D4E06940F08050E061E069012600F0D4
:10165000805000902E480168C90512D40168804668
:1016600041F480710160FFF7ABFE074605E000BF63
:10167000FFF7A6FEC01B642823D8D8F80000C005D9
:10168000F6D5206A10F4407021D0A98801F4407189
:1016900081421CD0206A1F49012220F440700A6058
:1016A00000220A602062C00711D0FFF789FE0746BA
:1016B00041F2883808E000BFFFF782FEC11B4145B8
:1016C00002D90320BDE8F883206A8007F4D5206A98
:1016D000696820F44070084320621EB1E06920F080
:1016E0008050E0612878800705D56068A96820F4FB
:1016F0004040084360602878C00605D56068E96806
:1017000020F48000084360600020DBE70010024006
:1017100000700040400442422DE9F0470F460500AA
:1017200061D0434E306800F00700B84209D23068FB
:1017300020F0070038433060306800F00700B842FE
:1017400051D128683B4C810712D5400703D560680A
:1017500040F4E06060602878000703D5606840F4DA
:10176000605060606068A96820F0F0000843606025
:101770002878C00728D06868012810D0216802287E
:1017800010D0890700292EDA616821F00301014396
:101790006160FFF715FE804641F288390DE021684F
:1017A0008903EFE78901EDE7FFF70AFEA0EB0801E7
:1017B000494502D90320BDE8F0876068696800F0F8
:1017C0000C00B0EB810FEFD1306800F00700B84299
:1017D0000BD9306820F0070038433060306800F0E3
:1017E0000700B84201D00120E5E72878400705D579
:1017F0006068E96820F4E0600843606028780007CA
:1018000006D56068296920F4605040EAC100606034
:1018100000F038F86168084AC1F30311515CC84010
:101820000649086006480068FFF71EFE0020C2E770
:1018300000200240001002406469000834000020CB
:101840002C0000200448054900684968044AC1F397
:101850000221515CC8407047340000200010024053
:10186000746900080448054900684968044AC1F3DE
:10187000C221515CC8407047340000200010024073
:101880007469000812A185B00FC98DE80F0014A07B
:10189000144A006804905168134801F00C03042BAB
:1018A00010D0082B0ED1C1F38343C9031DF80300E8
:1018B0000AD5516804AAC1F34041515C0A4A504319
:1018C000B0FBF1F005B0704708494843FAE7000063
:1018D00002030405060708090A0B0C0D0E0F101071
:1018E000010200000010024000127A0000093D00D1
:1018F0002DE9F84F040070D02078C04DC00749D0C2
:101900006868C0F38100012807D06868C0F38100CF
:10191000022809D16868C00306D52868800339D534
:1019200060680028E7D035E06068B0F5803F0BD0F4
:1019300010B1B0F5A02F11D0286820F480302860B5
:10194000286820F4802002E0286840F48030286075
:10195000606890B1FFF734FD06460AE0286840F45D
:1019600080202860F0E700BFFFF72AFD801B642875
:1019700073D828688003F7D50CE0FFF721FD0646F1
:1019800005E000BFFFF71CFD801B6428F0D8286825
:101990008003F7D420789A4E80074FF001094FF06A
:1019A000000839D5686810F00C0F07D06868C0F3DC
:1019B0008100022809D16868C00306D4286880071E
:1019C00014D52069012808D110E02069B0B1C6F80B
:1019D0000090FFF7F5FC074605E00AE1FFF7F0FC91
:1019E000C01B0228C4D828688007F7D52868616919
:1019F00020F0F80040EAC10028600DE0C6F8008041
:101A0000FFF7DEFC074604E0FFF7DAFCC01B022804
:101A100023D828688007F7D4207800072CD5794888
:101A2000A169D9B1C0F80090FFF7CAFC074604E0ED
:101A3000FFF7C6FCC01B02280FD8686A8007F7D5DD
:101A400071484FF4FA510068B0FBF1F0009000BF0C
:101A50000098411E0091FAD20EE080E0C0F80080AC
:101A6000FFF7AEFC074604E0FFF7AAFCC01B022804
:101A700075D8686A8007F7D42078400760D5E86990
:101A80000027C00008D4E86940F08050E861E869A8
:101A9000012700F0805000905C480168C90513D40C
:101AA0000168834641F480710160FFF789FC82463A
:101AB00006E000BFFFF784FCA0EB0A0064284ED8C4
:101AC000DBF80000C005F5D5E06801280AD008B1B0
:101AD000052813D0286A20F001002862286A20F027
:101AE000040002E0286A40F001002862E06841F248
:101AF000883B98B1FFF764FC82460BE0286A40F00F
:101B000004002862EEE700BFFFF75AFCA0EB0A01D1
:101B100059455AD8286A8007F6D50CE0FFF750FCE3
:101B2000824605E0FFF74CFCA0EB0A0159454CD872
:101B3000286A8007F6D41FB1E86920F08050E86178
:101B4000E06988B36968C1F38101022944D00228A1
:101B5000C6F8608004D0FFF733FC044638E034E078
:101B6000FFF72EFC074604E0FFF72AFCC01B022803
:101B70002BD828688001F7D4206AB0F5803F05D1C2
:101B80006868A16820F4003008436860D4E908015F
:101B90000843696821F4741108436860C6F86090CE
:101BA000FFF70EFC044606E025E000BFFFF708FC47
:101BB000001B022809D828688001F7D51BE000BF68
:101BC000FFF7FEFB001B022802D90320BDE8F88FB7
:101BD00028688001F4D40EE00128F7D06868226AF2
:101BE00000F48031914204D1616A00F4701088429F
:101BF00001D00120EAE70020E8E7000000100240E1
:101C00000000424280044242340000200070004044
:101C100010B5401EB0F1807F01D3012010BD4FF000
:101C2000E02460610F21601702F0C8F80020A06175
:101C300007202061002010BD7047704710B590F854
:101C40003C20012A22D0012280F83C20CA688C68FE
:101C500022F4407222434C6822F4806222430C68D2
:101C600022F4006222430C6922F4805222434C6920
:101C700022F400522243C969002322F480420A431D
:101C800001684A6480F83C30002010BD022010BD7D
:101C900070B590F83C20012A26D0012480F83C4001
:101CA000022280F83D2003685A689D6822F0700681
:101CB0000A6832435A600D4B02689A4208D0B2F16A
:101CC000804F05D00A4B9A4202D00A4B9A4204D167
:101CD000496825F080031943916080F83D40002158
:101CE00080F83C10084670BD022070BD002C0140F9
:101CF000000400400008004010B5040003D094F830
:101D00003D0010B107E0012010BD002084F83C0028
:101D1000204600F01FF8022084F83D00211D2068B5
:101D200001F064FD012084F8460084F83E0084F848
:101D30003F0084F8400084F8410084F8420084F8B1
:101D4000430084F8440084F8450084F83D000020F6
:101D500010BD000008B500680B49884212D10B483D
:101D6000C16941F00201C161C069002200F00200B6
:101D7000009011461D20FFF7C3FBBDE808401D2061
:101D8000FFF7B0BB08BD0000000400400010024097
:101D900090F83D10012901D001207047022180F800
:101DA0003D100168CA6842F00102CA6000680B4930
:101DB000884208D0B0F1804F05D00949884202D04E
:101DC0000849884204D1816801F00701062903D03F
:101DD000016841F00101016000207047002C0140C2
:101DE000000400400008004070B5044690F83C0034
:101DF000012817D0012584F83C50022084F83D00CA
:101E00002068826822F0770222F47F4282600868AC
:101E1000502830D00DDC20284DD005DC98B3102898
:101E20003BD148E0022070BD302844D0402834D156
:101E300039E0602828D0702806D0B0F5805F2CD01B
:101E4000B0F5005F29D10AE0CB68D1E90121206813
:101E500001F00FFD2068816841F0770109E0CB684F
:101E6000D1E90121206801F004FD2068816841F476
:101E70008041816011E0CA684968206801F0D4FDA2
:101E80005021206807E016E0CA684968206801F020
:101E9000DCFD6021206801F0F6FC84F83D50002054
:101EA00084F83C0070BDCA684968206801F0BCFD38
:101EB00040212068EFE7226801461046EBE72DE954
:101EC000F0410D46040003D094F83D0018B108E03D
:101ED0000120BDE8F081002084F83C00204600F09D
:101EE00041F8022084F83D002068816844F207022E
:101EF00091438160211D206801F078FC2268906880
:101F00009169166A2B68AF69034340F2033081433D
:101F100041EA0721A868EF6908434FF6FC4188436E
:101F2000E96840EA0720014328692F6A000140EA76
:101F30000730084369686D6926F0220646EA0515F0
:101F4000294393602268906154F8460B0162012096
:101F500004F81F09E0752076E0762077A075002050
:101F6000B7E7000000B585B0002100910191029112
:101F7000039101681A48B1F1804F1BD0194A914270
:101F800016D1C16941F00401C161C16901F00401C8
:101F90000491816941F0080181618069694600F01E
:101FA00008000490C02000900F4800BFFFF70EF912
:101FB00005B000BDC16941F00101C161C16901F015
:101FC00001010491816941F00401816180696946E0
:101FD00000F004000490032000900448E6E70000AD
:101FE0000010024000080040000C014000080140C1
:101FF00070B590F83E60044690F83F5090F842303B
:1020000090F84320022021B104290ED0012E1BD1CB
:1020100014E0012E18D1012B16D184F83E0084F86B
:10202000420001220021206820E0012D0CD1012A6C
:102030000AD184F83F0084F8430014E0012D03D155
:10204000012B01D1012A01D0012070BD84F83E008E
:1020500084F83F0084F8420084F843000122002104
:10206000206801F0F9FB01220421206801F0F4FB53
:102070002068016841F001010160002070BD7047D7
:1020800070B50446006801694FF00005C94389072F
:1020900015D4C168C943890711D4E91E0161012023
:1020A0002077206880698007204602D0FFF7E7FF8D
:1020B00004E000F0BFF8204600F062F925772068C0
:1020C0000169C943490717D4C168C943490713D4F3
:1020D0006FF004010161022020772068806910F40C
:1020E000407F204602D0FFF7CAFF04E000F0A2F8CC
:1020F000204600F045F9257720680169C9430907A2
:1021000016D4C168C943090712D46FF008010161F0
:10211000042020772068C0698007204602D0FFF79E
:10212000AEFF04E000F086F8204600F029F925779C
:1021300020680169C943C90617D4C168C943C906E3
:1021400013D46FF010010161082020772068C06966
:1021500010F4407F204602D0FFF791FF04E000F02A
:1021600069F8204600F00CF9257720680169C94319
:10217000C90708D1C168C943C90704D1891E0161D3
:10218000204600F04DF920680169C943090609D4C9
:10219000C168C943090605D46FF08001016120467A
:1021A000FFF74AFD20680169C943490609D4C1689F
:1021B000C943490605D46FF040010161204600F093
:1021C00017FA20680169C94389060BD4C168C9435D
:1021D000890607D46FF0200101612046BDE87040F8
:1021E000FFF72BBD70BD000000B585B00021009148
:1021F00001910291039100680B49884212D10B486A
:10220000816941F0040181618069694600F0040040
:1022100004904FF440700090022001900390044815
:10222000FEF7D4FF05B000BD002C014000100240B5
:1022300000080140704770B5044690F83C000D4618
:1022400001280AD0012084F83C0042B1042A18D0A9
:10225000082A2AD00C2A4DD139E0022070BD20680E
:1022600001F040FB2068816941F00801816120682C
:10227000816921F004018161206881692A69114323
:1022800011E0206801F056FB2068816941F400618B
:1022900081612068816921F48061816120688169A0
:1022A0002A6941EA0221816124E0206801F06EFB85
:1022B0002068C16941F00801C1612068C16921F04D
:1022C0000401C1612068C1692A69114311E02068D5
:1022D00001F088FB2068C16941F40061C161206898
:1022E000C16921F48061C1612068C1692A6941EA3C
:1022F0000221C161002084F83C0070BD10B50400CB
:1023000003D094F83D0010B107E0012010BD00207B
:1023100084F83C00204600F01FF8022084F83D00BD
:10232000211D206801F062FA012084F8460084F83B
:102330003E0084F83F0084F8400084F8410084F8AF
:10234000420084F8430084F8440084F8450084F88F
:102350003D00002010BD000008B500680649884215
:1023600008D10648816941F400618161806900F407
:102370000060009008BD0000002C014000100240E9
:102380007047000010B50446022249B104290ED05E
:10239000082913D094F84100012816D0012010BD5F
:1023A00094F83E000128F9D184F83E200FE094F81B
:1023B0003F000128F2D184F83F2008E094F8400063
:1023C0000128EBD184F8402001E084F8412001226B
:1023D000206801F041FA0F492068884203D1426C1D
:1023E00042F4004242642068884208D0B0F1804F35
:1023F00005D00949884202D00849884204D1816841
:1024000001F00701062903D0016841F001010160D4
:10241000002010BD002C01400004004000080040D6
:102420002DE9F04700686D4988427DD16C4C00264B
:102430000127A079401C40B2A0710A2801D1677120
:10244000A671684A111F081F03F07AFA654D143D02
:102450002A1DA91C284600F096FC05F10A02911ECF
:10246000A81D00F0A9FC00F0C1FCFEF72EF9A86140
:10247000022001F009F9E082042001F005F9404250
:10248000A082B4F916005530AA2806D9E078401C7D
:10249000C0B2E070642802D002E0E67000E027706D
:1024A00000F05EFCE868FEF73CF9002800DA4042E4
:1024B000DFF834812D2824DC2078012821D0012266
:1024C00010214046FEF777FFA846B5F90800FEF751
:1024D000FCF8444D814624356869FEF7F6F801465C
:1024E0004A46D8F80C0002F071FA2860E079012819
:1024F00021D0022829D0032833D0042833D078B340
:102500003EE0DFF8E890012211024846FEF753FF53
:10251000012208214846FEF74EFF0122D103404622
:10252000FEF749FF012200E055E011034846FEF79F
:1025300042FF0022C4E72869AE61401C2861A770F1
:1025400050281DDD502028611AE02869AE61401E28
:1025500028616FF03B01A770884211DA29610FE012
:1025600006E02D2001E06FF02C00A861A67007E0C6
:102570002E61A670AE61D8F81400FEF7EBF820814A
:102580002869FEF7A2F803464646B4F91610B4F9D6
:102590001400D8F80C2004F091F96860B6F90A002C
:1025A000FEF793F80146A86904F070F9A86029883D
:1025B000AA8811440A1A12B2084401B2A281E18128
:1025C000104600F0DFFBB4F90E10B4F90C00BDE8C2
:1025D000F04701F06FB8BDE8F0870000000400404C
:1025E000000000208C01002000080140000C014088
:1025F0007047704770470000F8B5026804461068DD
:10260000D168536910F00F0F4FF0000554D003F05C
:10261000010601F4907737435FD0C20705D0CA05A1
:1026200003D5226C42F001022264420705D5DA0785
:1026300003D0226C42F002022264820705D5DA0739
:1026400003D0226C42F004022264020707D501F095
:102650002002324303D0226C42F008022264226C32
:10266000002A35D0800604D5880602D5204601F020
:102670001EFA20684069216CC0F3801001F0080147
:102680000143204625D001F0FAF920684169490646
:102690001BD5416921F040014161A06BA8B15849A7
:1026A0004163A06BFEF734FD002811D0A06B416B95
:1026B00001B0BDE8F040084783060ED58B060CD567
:1026C0002046BDE8F84001F0F2B92046FFF792FF3E
:1026D000F8BDFFF78FFF2564F8BD266B2023012E80
:1026E00052D1C60650D5CE064ED51068506800901F
:1026F000506940062AD5A16B086840680004000CA8
:10270000EAD0A68D8642E7D9E0858869202818D0CE
:10271000D06820F48070D0602068416921F0010108
:1027200041612068416921F04001416184F83E30F7
:1027300025632068C16821F01001C160A06BFEF71D
:10274000C3FCA08DE18D401A81B219E0A08DE18D0E
:10275000401A81B2E08D0028BED00029BCD0D068DC
:1027600020F49070D0602068426922F0010242613A
:1027700084F83E3025632068C26822F01002C260EF
:102780002046FFF736FFF8BD05062BD50D0629D5E7
:1027900094F83D002128F6D1A068B0F5805F01D102
:1027A0002069B0B1206A411C21622168007848602C
:1027B000E08C401E0004000CE084E4D12068C16875
:1027C00021F08001C1602068C16841F04001C16012
:1027D000F8BD206A0088C0F308005060206A801CA1
:1027E0002062E5E74006F3D54806F1D5D1682046DA
:1027F00021F04001D16084F83D3000F016F9F8BDB9
:102800006F3A000870B5040004D094F83D0000252C
:1028100010B106E0012070BD84F83C50204600F065
:1028200023F8242084F83D002068C16821F4005179
:10283000C160204601F096F92068016921F49041B9
:1028400001612068416921F02A0141612068C16865
:1028500041F40051C1602564202084F83D0084F8D3
:102860003E00002070BD000030B585B0002400940B
:102870000194029403940068184988422BD11848A7
:10288000C16941F40031C161C16901F400310491B1
:10289000816941F0040181618069124D00F00400FA
:1028A00004900420009002200190032003906946C8
:1028B0002846FEF78BFC0820CDE90004694628462F
:1028C0000294FEF783FC002202212620FEF718FE68
:1028D0002620FEF707FE05B030BD00000044004092
:1028E000001002400008014090F83E30202B0ED12D
:1028F00059B152B190F83C30012B08D0012380F837
:102900003C300023036301F089B9012070470220A5
:102910007047000010B50068144988421AD101229E
:1029200013491448FFF7E0FF114800210378401EC7
:10293000422B10D008DC4FF00102312B12D0322B89
:1029400012D0412B0AD104E0432B06D0442B05D1F1
:1029500006E0C27110BD022100E00321C17110BD6B
:102960000421FBE7027010BD017010BD004400405F
:1029700001000020280300202DE9F843044690F8C8
:102980003D001F4616460D4620284CD1C5B1BEB1AC
:1029900094F83C00012846D0012084F83C004FF018
:1029A0000008C4F84080212084F83D00FEF708FDAF
:1029B000A6848146E684A068B0F5805F03D004E079
:1029C0000120BDE8F883206928B12E465FF000059C
:1029D00084F83C800EE00026FAE78021204601F0D2
:1029E00038F9A0B9AEB116F8010B21684860E08C47
:1029F000401EE084E08C4B464FF000020097002818
:102A0000EBD14FF04001204601F023F930B1032013
:102A1000D7E735F8020BC0F30800E6E7202084F87A
:102A20003D000020CDE70220CBE77047FEE7000025
:102A300010B50B4C012210212046FEF7BCFC0122F0
:102A400020212046FEF7B7FC002220212046FEF779
:102A5000B2FC20460022BDE810401021FEF7ABBCBE
:102A6000000C014010B5094C012210212046FEF750
:102A7000A2FC002220212046FEF79DFC20460122D8
:102A8000BDE810402021FEF796BC0000000C01407C
:102A900010B50E4C002280212046FEF78CFC00F081
:102AA00017F8012240212046FEF785FC00F010F8BF
:102AB000002240212046FEF77EFC00F009F8204667
:102AC0000122BDE810408021FEF775BC00080140DE
:102AD0000020401CC0B20A28FBD370470C4800B548
:102AE000816985B041F0040181618069694600F027
:102AF00004000490C0200090032003901120019056
:102B00000448FEF763FB00F09DF805B000BD00002F
:102B1000001002400008014010B50C4C0122802139
:102B20002046FEF748FCFFF7D3FF01224021204654
:102B3000FEF741FCFFF7CCFF002240212046FEF7C4
:102B40003AFCBDE81040FFF7C3BF00000008014099
:102B50002DE9F0410024134E074625466006040E79
:102B6000012240213046FEF726FCFFF7B1FF80210D
:102B70003046FEF71BFC08B1641CE4B20022402181
:102B80003046FEF718FCFFF7A3FF6D1CEDB2082DD1
:102B9000E4D327B1FFF77CFF2046BDE8F081FFF7C3
:102BA000BBFFF9E70008014070B5154E054600244B
:102BB000280601D5012200E0002280213046FEF7E0
:102BC000FAFBFFF785FF012240213046FEF7F3FBB9
:102BD000FFF77EFF002240213046FEF7ECFB072C7A
:102BE00004D1012280213046FEF7E5FB6806050E80
:102BF000FFF76EFF641CE4B2082CD9D370BD00004F
:102C00000008014010B50E4C012280212046FEF73D
:102C1000D2FB012240212046FEF7CDFBFFF758FFF3
:102C2000002280212046FEF7C6FBFFF751FF00225D
:102C300040212046FEF7BFFBBDE81040FFF748BF2C
:102C40000008014010B50A4C002280212046FEF702
:102C5000B2FB012240212046FEF7ADFBFFF738FF13
:102C600020460122BDE810408021FEF7A4BB0000F1
:102C70000008014010B5064C012210212046FEF745
:102C80009AFB20460022BDE810401021FEF793BBBE
:102C9000000C014070B5104D012280212846FEF73E
:102CA0008AFBFFF715FF012240212846FEF783FB30
:102CB000FFF70EFF80212846FEF778FB08B10124BC
:102CC00000E00024002240212846FEF774FBFFF7B5
:102CD000FFFE204670BD0000000801402DE9F047CE
:102CE00001251C4C1C4FDFF87490AE024FF40048D5
:102CF00008B1257101E0207948B131463846FEF728
:102D000055FB58B141464846FEF750FB30B13146BD
:102D10003846FEF74BFB012812D018E00020207146
:102D200041464846FEF742FB28B131463846FEF799
:102D30003DFB18B10BE00220BDE8F0870320FBE764
:102D400041464846FEF732FB012800D1257100209C
:102D5000F2E70000000000200008014000100140E0
:102D600010B50020FFF7BAFF002806D0044902285A
:102D700004D0032801D10120087010BD0020FBE71A
:102D80000000002070477CB514460D4606466B4691
:102D900006223B21682000F04FF800280BD1BDF837
:102DA000001049BA3180BDF8021049BA2980BDF837
:102DB000041049BA21807CBD7CB514460D460646F8
:102DC0006B4606224321682000F036F800280BD11C
:102DD000BDF8001049BA3180BDF8021049BA298007
:102DE000BDF8041049BA21807CBD000008B56B46CF
:102DF00002224121682000F01FF8BDF8000040BA0F
:102E000000B2FDF770FC0022074BFDF7D8FB074A24
:102E1000074BFDF7BBFAFDF7DDFC0649FDF73AFA73
:102E2000FDF77FFC00B208BD00407540A4703D0A6C
:102E3000D74342400000C8422DE9F0411D461446E8
:102E40000F460646FFF7DEFE7006000EFFF7ACFEEB
:102E5000FFF720FF20B1FFF7F5FE0120BDE8F0816C
:102E60003846FFF7A1FEFFF715FFFFF7CBFE012065
:102E700000EB4600C0B2FFF797FEFFF70BFF09E03B
:102E8000012C0DD05FF00100FFF762FE641E05F813
:102E9000010BE4B2002CF3D1FFF7D4FE0020DDE7F4
:102EA0000020F1E72DE9F0411E4615460F46044685
:102EB000FFF7A8FE6006000EFFF776FEFFF7EAFEBA
:102EC00060B93846FFF770FEFFF7E4FE00240CE01F
:102ED000305DFFF769FEFFF7DDFE20B1FFF7B2FEC0
:102EE0000120BDE8F081641CE4B2AC42F0D3FFF7EE
:102EF000A9FE0020F5E700003EB50024114800942B
:102F0000019402940E4984600160047304750125E4
:102F100005614FF460214460C161FDF71DFF08B1F8
:102F2000FDF754FE0520CDE90005694602940548E9
:102F3000FDF790FE002801D0FDF748FE3EBD0000E1
:102F400000240140CC0100202DE9F04786B0002488
:102F500037480094019402940394816941F0100170
:102F60008161816901F010010491816941F02001C2
:102F70008161816901F020010491816941F00401BE
:102F80008161816901F004010491816941F00801C6
:102F900081618069012200F00800DFF89880550304
:102FA000049029464046FEF706FADFF88CA001227D
:102FB00010215046FEF7FFF9002248F2C0015046AA
:102FC000FEF7F9F9DFF8749041F23817002239461C
:102FD0004846FEF7F0F90095022601250396CDE953
:102FE000015469464046FEF7F1F8E8038DE83100E8
:102FF00069464046FEF7EAF848F2D000CDE9000500
:10300000CDE9024669465046FEF7E0F80097039680
:10301000CDE9015469464846FEF7D8F8A8028DE884
:10302000310069465046FEF7D1F806B0BDE8F0879A
:10303000001002400010014000080140000C014057
:10304000094810B5074901600321416040F6E44199
:103050008160FEF7BBF9002803D0BDE81040FDF702
:10306000B5BD10BD00300040FC01002010B592B08D
:1030700000240F941C2168461094FDF79BF8202132
:1030800007A8FDF797F824482249C0E9001441F643
:103090001F41C0E9024180210461C0E90541FFF7F9
:1030A0002DF908B1FDF792FD0F940FA91A4810945D
:1030B000FEF7EEFD08B1FDF789FD6020CDE90004C3
:1030C00002940394049405940022694612480694DD
:1030D000FFF7B1F808B1FDF779FD042269460E4803
:1030E000FFF7A9F808B1FDF771FD0794089409945A
:1030F0004FF400500A94CDE90B4007A906480E94FE
:10310000FEF79CFD08B1FDF761FD0348FFF76CF881
:1031100012B010BD002C01400802002010B58CB088
:1031200024216846FDF746F80024164809944FF01C
:1031300080410A94C0E900144FF6FF71C0E90241D2
:103140008021046181610320CDE900040120CDE9E3
:1031500002040494CDE9054007946946094808949F
:10316000FEF7ADFE08B1FDF731FD099409A9054848
:103170000A94FEF78DFD002801D0FDF727FD0CB065
:1031800010BD00005002002010B586B00024174882
:1031900000940194029403940494134905940160EB
:1031A0006321C0E9011441F61F41C0E903148021E5
:1031B0008161FEF7A1FD08B1FDF708FD4FF48050D5
:1031C000009069460948FEF70FFE08B1FDF7FEFCC6
:1031D000049404A905480594FEF75AFD002801D07F
:1031E000FDF7F4FC06B010BD00040040980200207A
:1031F00010B58CB024216846FCF7DCFF002416488B
:10320000099414490A94C0E900144FF6FF71C0E90B
:1032100002418021046181610320CDE90004012085
:10322000CDE902040494CDE90540079469460A48B3
:103230000894FEF744FE08B1FDF7C8FC099409A9FB
:1032400005480A94FEF724FD002801D0FDF7BEFCD6
:103250000CB010BD00080040E00200200C4810B582
:103260000A4901604FF416514160002181600C222F
:10327000C160C0E904128161C161FFF7C3FA00288F
:1032800003D0BDE81040FDF7A1BC10BD00440040D4
:1032900028030020FEE7FEE770B50024002104F1BA
:1032A000B00000F0C9F90021084600F0C5F900217E
:1032B000102000F0C1F900250121002000F0BCF928
:1032C0006D1CEDB2802DF7D3641CE4B2082CE5D35D
:1032D00070BD000030B1012807D100215FF0A700C8
:1032E00000F0AAB90021A620FAE7704710B558B13E
:1032F000012810D10021C02000F09EF90021A0205B
:10330000BDE8104000F098B90021C82000F094F901
:103310000021A120F4E710BD10B50021AE2000F07F
:103320008BF90021084600F087F90021102000F0F9
:1033300083F90021402000F07FF90021B02000F047
:103340007BF90021812000F077F90021FF2000F0B7
:1033500073F90021A12000F06FF90021A62000F0F0
:103360006BF90021A82000F067F900213F2000F050
:1033700063F90021C82000F05FF90021D32000F09C
:103380005BF90021084600F057F90021D52000F034
:1033900053F90021802000F04FF90021D82000F0DF
:1033A0004BF90021052000F047F90021D92000F059
:1033B00043F90021F12000F03FF90021DA2000F06C
:1033C0003BF90021122000F037F90021DB2000F04A
:1033D00033F90021302000F02FF900218D2000F07A
:1033E0002BF90021142000F027F90021BDE810403E
:1033F000AF2000F021B9000010B5C820FDF7D4FEC1
:10340000FFF78AFFFFF748FF0020FFF763FF012067
:10341000FFF76CFF1023BDE8104002A20021184600
:1034200000F0EFB842616C616E6365204361720029
:1034300038B503210022084600F042F8012203219A
:10344000132000F03DF80220FDF7D2FB0F490246A1
:103450000C244881042303212B20009400F09CF8C5
:1034600002220621032000F02BF80322062113205C
:1034700000F026F806488069FDF76CF9024604233F
:1034800007212B20009400F087F838BD00000020B1
:103490007801002010B50A460446002102F1B00070
:1034A00000F0CAF8102040EA1410002100F0C4F81F
:1034B00004F00F00BDE81040002100F0BDB800008E
:1034C0002DE9F04115460E460746FFF7E3FF0F488A
:1034D000002400EB85150121285D00F0ADF8641C87
:1034E000E4B2102CF7D3761CF1B23846FFF7D2FFC6
:1034F00000242819012190F8200000F09DF8641C98
:10350000E4B2102CF5D3BDE8F081000038000020B3
:103510002DE9F041203A00240D468046D6B27F289E
:1035200003D900208D1C8046EDB2102B294610D007
:10353000FFF7B0FF164906EB460001EB40050121FD
:10354000285D00F079F8641CE4B2062CF7D3BDE8DE
:10355000F081FFF79FFF0F4F04EB06100121385C4D
:1035600000F06AF8641CE4B2082CF5D36D1CE9B2D3
:103570004046FFF78FFF002404EB0610384401217A
:10358000007A00F059F8641CE4B2082CF4D3DEE7AA
:103590007C690008A46B00082DE9F05F0026DDF8C7
:1035A00028901D4692468B46804634464FEA59077E
:1035B00023E0281B401EC1B20A2003F0D1F8BAFB59
:1035C000F0F00A21B0FBF1F201FB120026B9691EEE
:1035D0008C4201DA38B101263030C2B207FB0480D8
:1035E000C0B24B4604E007FB0480C0B24B46202229
:1035F0005946FFF78DFF641CE4B2AC42D9D3BDE855
:10360000F09F2DE9F041984617460E4604460025E6
:103610000DE0434631462046FFF77AFF0834E4B216
:10362000782C02D90024B61CF6B26D1CEDB27A5D7E
:10363000002AEED1BDE8F081C0B209B100F083BB31
:1036400000F06ABB094908480C4A0860084848600D
:10365000084888600848C8604FF0834008610848FF
:10366000C1E90502704700000080C54394010020B5
:103670003D0A573F000082426666A63E0000C842EF
:103680000AD7233E704700000021022803D00428F7
:1036900003D000207047044800E004480268506AE4
:1036A000516200B27047000050020020E00200208A
:1036B000704700002DE9F0410C46234F234E0500D2
:1036C0004FF480710BD501223846FDF774FE0022BD
:1036D00008213846FDF76FFE6842308209E000227B
:1036E0003846FDF768FE012208213846FDF763FEE3
:1036F0003582174DB6F91000296800F596704863B9
:1037000014484FF400414FF48058002C0ADA00228C
:10371000FDF751FE012241463846FDF74CFE60425E
:10372000708208E00122FDF746FE0022414638463D
:10373000FDF741FE7482B6F91200296800F5967013
:103740008863BDE8F0810000000C0140000000200B
:103750000802002000080140FDF76CBE30B593B0B0
:1037600028216846FCF726FD14210AA8FCF722FD53
:1037700000250F95092001211095009011951295B3
:103780004FF4803004910691CDE901050224CDE982
:1037900007404FF4E01009906846FEF7A9F808B119
:1037A00072B6FEE70AA90F2081E831004FF480606D
:1037B000CDE90D0502210AA8FDF7AEFF08B172B6EA
:1037C000FEE74FF4004011900F940FA8FDF72EFF75
:1037D000002801D072B6FEE713B030BD704700007C
:1037E0000148FEF74DBC000098020020F0B50268C9
:1037F000164B174C174D4FF08047984205D0B842F2
:1038000003D0A04201D0A84203D122F070064A683A
:103810003243984205D0B84203D0A04201D0A8421A
:1038200003D122F44074CA6822434C6922F080021A
:10383000224302608A68C2620A688262984201D1A9
:103840000969016301214161F0BD0000002C0140C4
:10385000000400400008004010B501F01F030121E2
:10386000046A99408C430462016A9A4011430162E0
:1038700010BD10B5846842EA032224F47F440A4351
:103880002243826010BD826822F070020A4342F037
:10389000070181607047000010B500210D48FEF758
:1038A00071FD04210B48FEF76DFD00210A48FEF76B
:1038B0009FFB04210848FEF79BFB0848FEF768FAC7
:1038C00000210748FEF794FBBDE81040042104489E
:1038D000FEF78EBB08020020500200209802002054
:1038E000E002002030B5026A22F001020262026AA0
:1038F0004368846924F073050C682C4322F00205A8
:103900008A682A430A4DA8420BD122F00805CA68EA
:1039100023F440732A434D6922F004021D438B694E
:103920002B434360846149684163026230BD0000FB
:10393000002C014030B5026A22F010020262026AD5
:10394000436884690D6824F4E64444EA05248D68DC
:1039500022F0200242EA05120B4DA8420ED1CD689A
:1039600022F0800242EA05124D6923F4406343EAE3
:1039700085038D6922F0400243EA85034360846138
:1039800049688163026230BD002C014030B5026A93
:1039900022F480720262036A4268C46923F40073ED
:1039A00024F073050C682C438D6843EA05230C4D05
:1039B000A8420ED1CD6823F4006343EA05234D6984
:1039C00022F4405242EA05128D6923F4806342EAF0
:1039D00005124260C4614968C163036230BD0000E2
:1039E000002C014030B5026A22F480520262046A5F
:1039F0004268C3690D6823F4E64343EA05238D68F2
:103A000024F4005444EA0534064DA84204D14D691B
:103A100022F4804242EA85124260C361496801642F
:103A2000046230BD002C014010B5036A046A24F022
:103A300001040462846924F0F00444EA021423F0CF
:103A40000A020A438461026210BD10B5036A23F0C2
:103A5000100303628369046A23F4704343EA023269
:103A600024F0A00343EA01118261016210BD10B588
:103A7000406A0021C185C184FEF7BCFD10BD01680C
:103A8000CA6822F49072CA6001684A6922F0010291
:103A90004A61016B012904D10168CA6822F0100251
:103AA000CA60202180F83E1000210163704708B5EC
:103AB00090F83E10222901D0022008BD82684FF400
:103AC00080539A4201D1016921B1816A9A421BD087
:103AD0004AB10AE00268816A5268C2F308020A80A9
:103AE000816A891C08E0026972B10268526802F0BA
:103AF0007F020A70816A491C8162C18D491E0904D6
:103B0000090CC18503D019E002685268F1E7016829
:103B1000CA6822F02002CA600168CA6822F4807272
:103B2000CA6001684A6922F001024A61202180F8D6
:103B30003E10016B012903D0FEF7ECFE002008BD0A
:103B4000002101630168CA6822F01002CA6001689E
:103B50000A68D20602D50A6849680091818DFEF78D
:103B600048FDEBE770B5044600680169E26821F49E
:103B70004051114301612169A0680843616908430C
:103B80002168CA6841F20C639A430243CA60206804
:103B90004169A26921F44071114341611E492068C5
:103BA000884202D1FDF75EFE01E0FDF74BFE00EB1F
:103BB000C00101EB0012606864218000B2FBF0F3E9
:103BC000B3FBF1F36FF018067343B2FBF0F5B2FBF1
:103BD000F0F605EB8305322303EB0515B5FBF1F594
:103BE000B6FBF1F605F0F00505EB0615B2FBF0F6B5
:103BF000B2FBF0F0B0FBF1F06FF01802504306EBAF
:103C0000800003EB0010B0FBF1F0216800F00F0022
:103C10002844886070BD00000038014081628285C0
:103C2000C28500210164222280F83E2080F83C10E9
:103C30000168CA6842F48072CA6001684A6942F049
:103C400001024A610068C16841F02001C1600020A2
:103C500070472DE9F041984617460E460446069DEA
:103C60001DE0681C1BD02DB1FDF7AAFBA0EB0800DE
:103C7000A84214D92068C16821F4D071C1602068BD
:103C8000416921F001014161202084F83D0084F860
:103C90003E00002084F83C000320BDE8F08120684D
:103CA000006836EA000004D00020B842D9D00020D5
:103CB000F3E70120F9E700000148FEF79DBC000092
:103CC00028030020FEE7000070B5124E04460022D3
:103CD00010213046FDF76FFB5FF0000504F0800017
:103CE000802815D0002220213046FDF764FB6006B5
:103CF000040E012210213046FDF75DFB0022102149
:103D00003046FDF758FB6D1CEDB2082DE6D370BDB3
:103D10000122E8E7000C014010B50446FEF788FEDA
:103D20007820FFF7D1FFFEF7A5FF0020FFF7CCFFBB
:103D3000FEF7A0FF2046FFF7C7FFFEF79BFFBDE899
:103D40001040FEF78FBE10B50446FEF771FE7820D6
:103D5000FFF7BAFFFEF78EFF4020FFF7B5FFFEF733
:103D600089FF2046FFF7B0FFFEF784FFBDE8104053
:103D7000FEF778BE0FB4054B10B503A9044A0298AC
:103D800000F0AAF810BC5DF814FB000039530008DD
:103D900070010020490050EAC12018BF04204A0DDC
:103DA00018BF40F0010040F2FF72B2EB515F08BF54
:103DB00040F00200012808BF052070470907090EDE
:103DC000002804DB00F1E02080F80014704700F0C8
:103DD0000F0000F1E02080F8141D70472DE9F0413C
:103DE0004F1E00EBC7010446D1E9000115461E46EF
:103DF00037F006020DD02A463346FCF76EFB7F1ED5
:103E000004EBC703D3E90023FCF7C0FA37F006023E
:103E1000F1D1022F25D0042F13D0062F18BFBDE8F3
:103E2000F0812A463346FCF758FBD4E90A23FCF715
:103E3000ADFA2A463346FCF750FBD4E90823FCF7D9
:103E4000A5FA2A463346FCF748FBD4E90623FCF7DB
:103E50009DFA2A463346FCF740FBD4E90423FCF7DD
:103E600095FA2A463346FCF738FBD4E90223FCF7DF
:103E70008DFA2A463346FCF730FBD4E90023BDE82F
:103E8000F041FCF783BA0122FCF708BCFCF77EBACC
:103E90000022134610461146FCF791BB024A00204F
:103EA0001107FCF7FBBB000001FDFFFF02E008C8A3
:103EB000121F08C1002AFAD170477047002001E0A4
:103EC00001C1121F002AFBD17047000001490860A0
:103ED00070470000740100202DE9FF4F8DB00F46A0
:103EE0000546002606E025280BD0DDE90F12904795
:103EF0006D1C761C28780028F5D111B03046BDE83D
:103F0000F08F0024A246A1460122EC4900E00443C0
:103F100015F8013F203B02FA03F00842F7D1287858
:103F20002A2810D06FF02F022878A0F1300109293B
:103F300014D80AEB8A0102EB410144F0020400EBC1
:103F4000010A6D1CF0E701CF5FEA000A03D544F4D3
:103F50000054CAF1000A44F002046D1C28782E288F
:103F600017D115F8010F44F004042A280ED06FF081
:103F70002F022878A0F1300109290AD809EB89011C
:103F800002EB410100EB01096D1CF2E757F8049BBD
:103F90006D1C28786C280FD006DC4C2817D06828B8
:103FA0000DD06A2814D104E0742810D07A280FD1DB
:103FB0000DE044F400140AE044F4801401E044F4F9
:103FC00040146978814202D104F580146D1C6D1C87
:103FD0002A786E2A1FD00CDC632A31D004DC002A38
:103FE0008BD0582A11D1A3E0642A68D0692A0CD159
:103FF00065E0732A2ED004DC6F2A73D0702A04D1B6
:104000009BE0752A6FD0782A6ED01046DDE90F123A
:104010009047761C50E1C4F30250022806D00328D2
:1040200009D0042801CF09D0066045E101CFF1177E
:10403000C0E9006140E101CF06803DE106703BE14F
:1040400017F8040B8DF8000000208DF80100EB46F6
:10405000012003E057F804BB4FF0FF3061074FF039
:10406000000102D40DE008F10101884649450FDA4C
:104070008045F8DB1BF808100029F4D108E008F1AE
:10408000010188468142FADB1BF808100029F6D1AD
:10409000DDE90F23AAEB08008146214600F036F93E
:1040A000304400EB080604E0DDE90F121BF8010BB9
:1040B0009047B8F10108F7D221464846F7E00A21B7
:1040C000C4F302534FF0000B0891022B04D001CF30
:1040D000C117032B09D00AE0FF1D27F00707F7E8F7
:1040E000020108E032E01FE020E000B2C117042B1B
:1040F00001D140B2C117031E71F1000307DA4FF07E
:10410000000CD0EB0C006CEB01012D2302E0230529
:1041100004D52B238DF82430012303E0E30701D0DD
:104120002023F7E7984658E00A2110E010210EE01E
:1041300010204FF0000B08900CE010214FF0000B06
:1041400044F004044FF00809089103E008214FF0FF
:10415000000B0891C4F30253022B04D001CF0021BD
:10416000032B06D006E0FF1D27F00707F7E8020142
:1041700003E080B2042B00D1C0B24FF00008230747
:104180002BD5702A07D0DDF820C08CF0100C5CEA2B
:104190000B0C05D00EE040238DF82430012308E0FD
:1041A00050EA010306D030238DF824308DF8252005
:1041B00002239846DDF820C08CF0080C5CEA0B0C5A
:1041C0000BD150EA010301D1630706D530238DF8E6
:1041D00024304FF00108A9F10109582A04D038A26F
:1041E0000B9208AA0A920BE03AA2F9E75B46089AFA
:1041F000FCF70CFB0B9B9B5C0A9A521E0A921370F5
:1042000050EA0102F2D10A98ADEB000000F1200B58
:10421000600702D524F4803401E04FF00109D9454C
:1042200002DDA9EB0B0000E0002000EB0B01414494
:104230000890AAEB010AE00306D4DDE90F2321462A
:10424000504600F063F806444FF0000908E009A961
:1042500011F80900DDE90F12904709F10109761CF8
:10426000C145F4DBE0030CD5DDE90F2321465046C0
:1042700000F04CF8064404E0DDE90F1230209047CE
:10428000761C0899481E08900029F5DC08E00A9879
:104290000A990078491C0A91DDE90F129047761CB3
:1042A000BBF10001ABF1010BF1DC21465046DDE929
:1042B0000F2300F019F806446D1C1BE609280100C5
:1042C000303132333435363738396162636465668C
:1042D000000000003031323334353637383941424E
:1042E00043444546000000002DE9F0410446002506
:1042F0001E461746880404D405E039462020B047FE
:104300006D1C641EF9D52846BDE8F0812DE9F04109
:10431000044600251E469046C80301D5302700E01C
:104320002027880404D505E041463846B0476D1C77
:10433000641EF9D52846BDE8F08100002DE9FE4F46
:1043400007460E460025684601F002F800246FF08B
:104350000F0AE8464FF0010957F8240056F82410D8
:10436000401A00D54042FCF7B0F95146FCF702F87C
:1043700058F8241011F0FF4F0BD0FBF7BDFF4FF0A2
:104380007E51FBF781FF0A4920F00040884205DC9E
:1043900007E0084908440849884202D309FA04F0B2
:1043A0000543641C032CD7DB2846BDE8FE8F0000C4
:1043B000295C0F3E666666C19A99D9002DE9F04DD9
:1043C0008D4F21F0004A86B005460C46BA452ADBDF
:1043D000AAEB070028430AD08848824501DC1AD19D
:1043E000CDB106B02846BDE8F04DFFF74CBD844A7C
:1043F000844B2846FCF771F807460E46824A834BE9
:1044000028462146FCF769F806B03A463346BDE82F
:10441000F04DFBF7BBBF0120FFF758FD06B0BDE82C
:10442000F04DFFF735BD7A48824542DABAF1795F3F
:104430000BDA2846FFF7AEFC042808BFFFF72EFD75
:10444000284606B02146BDE8F08D2A460B461046A8
:10445000FCF743F8834602466E480E460B4606219B
:104460007844FFF7BBFC5A463346FCF736F88046E3
:1044700069488A465A46334604217844FFF7AEFC21
:104480005A463346FCF729F800223B46FBF77EFFED
:1044900002460B4640465146FCF791F82A46234611
:1044A000FCF71BF806B02A462346BDE8F04DFBF7A3
:1044B0006DBF284624F0004100223D463B46FCF7F4
:1044C00009F84FF0FF32FCF7E9F806460246534878
:1044D0000F460B4606217844FFF780FC32463B46E8
:1044E000FBF7FBFFCDE900014D4832463B46042176
:1044F0007844FFF773FC32463B46FBF7EEFF0022A1
:104500002B46FBF743FF834602913046394602F0C3
:1045100097F9804643480D46504517DCDDE9000118
:104520005A46029BFCF74BF842462B46FBF7D5FF59
:1045300042462B46FBF72AFF0122FCF7AFF8304A30
:10454000304BFBF7C4FF304A304B4CE04FF0000AD1
:1045500052460B464046FBF719FFCDE90310524681
:104560002B4610461946FBF7B8FF32463B46FBF791
:10457000B1FFDDE90332FCF722F806460F46DDE91C
:1045800000015A46029BFCF71AF88346009101226B
:1045900030463946FCF782F8194A1A4BFBF79AFF66
:1045A00006460F46012240462946FCF777F85A4650
:1045B000009BFBF792FF32463B46FBF788FF06461F
:1045C0000F46012250462946FCF768F80E4DDFF8E9
:1045D00058802A464346FBF77DFF32463B46FBF7B1
:1045E00079FF2A464346FBF775FF002CD8BF81F0C0
:1045F000004106B0BDE8F08D0000F03F0000F07F04
:10460000075C143326A6913C182D4454FB21F93F36
:104610000000E03F7C3900009239000006390000BC
:104620001C3900003333EF3FFB21E93F2DE9F84F00
:1046300004460D4621F0004000917349814211DC8F
:104640007249884201DC06D12CB120462946BDE8DA
:10465000F84FFFF718BC6E48002DCCBF6D496E496E
:10466000BDE8F88F6D49814211DD6D498142D8BFA7
:104670004FF0FF366DDD20462946FFF78BFB0428FF
:1046800008BFFFF70BFC20462946BDE8F88F6549B7
:10469000654F25F00045814233DD6449814219DDD3
:1046A000002632464FF0804320462946FBF76EFE37
:1046B00080468A46012220462946FBF7EFFF00226A
:1046C0003B46FBF704FF42465346FBF778FF0446A0
:1046D0000D463EE001260022BA463B4620462946CA
:1046E000FBF754FE80460F460022534620462946DB
:1046F000FBF7EDFE42463B46FBF761FF04460D46E5
:1047000027E04B4981421BDDDFF828A10226002269
:10471000534620462946FBF7E0FE00223B46FBF7C6
:1047200035FE80460F460022534620462946FBF7B9
:10473000CEFE42463B46FBF742FF04460D4608E0EC
:10474000032622462B4600203B49FBF738FF044650
:104750000D4622462B4610461946FBF7BEFE8B46F9
:10476000824602460B46FBF7B8FE07460246334830
:1047700088460B4606217844FFF730FB52465B46DD
:10478000FBF7ABFE82462E488B463A464346052150
:104790007844FFF723FB3A464346FBF79EFE02466A
:1047A0000B46002E504659460CDAFBF7EFFD224629
:1047B0002B46FBF792FE01B022462B46BDE8F04F98
:1047C000FBF788BEFBF7E2FD22462B46FBF785FE92
:1047D0001C4A7A4402EBC603D3E90023FBF777FEB9
:1047E00022462B46FBF773FE174A7A4402EBC603B8
:1047F000D3E90023FBF76EFE009A002AB8BF81F0D0
:104800000041BDE8F88F0000000010440000F07F78
:10481000182D4454FB21F93FFB21F9BF0000DC3F78
:104820000000203E0000F33F0000F03F0000E63FA4
:10483000008003400000F83F0000F0BF1E3700007A
:10484000DC3600007A360000423600002DE9F04DDB
:104850009446CCF1000423F000464CEA0404524F85
:1048600046EAD4749A46884621F00042BC4206D8F3
:10487000454240EA050442EAD474BC4204D9BDE88A
:10488000F04D6246FFF702BBAAF14055A5F17F65E6
:1048900055EA0C040BD0022404EAAA74434DDFF855
:1048A00010E144EAD87452EA000B04D00CE0BDE8F1
:1048B000F04DFFF7BBBE002C14BF012CBDE8F08DFE
:1048C000022C30D0032C32D056EA0C0B0AD0BE4258
:1048D00020D1BA4209D126F0804622F080423346E8
:1048E000114617E000291ADB25E0DFF8C8B0FB44C9
:1048F000002C04BFDBE90001BDE8F08D012C02BFF4
:10490000DBE9000181F00041BDE8F08D022C0AD006
:10491000032C0CD0BA4212D1B8F1000F0BDA2348A5
:104920002549BDE8F08D28462449BDE8F08D28468C
:104930007146BDE8F08D1D482149BDE8F08D921B00
:1049400012153C2AC4BF19481D490EDCBAF1000FEC
:10495000BEBF12F13C0F0020014606DB6246FBF7AA
:104960002EFE21F00041FFF761FE002C08BFBDE8DC
:10497000F08D012C04BF81F00041BDE8F08D114A9B
:10498000114B022C07D0FBF7A2FD2A46BDE8F04DE3
:104990000A4BFBF79CBDFBF79AFD2A46BDE8F04D9C
:1049A000064BFBF797BD00000000F07F182D445424
:1049B000FB2109C0D6350000FB21F9BFFB210940CE
:1049C000FB21F93F075C143326A6A13C70B51446C1
:1049D000FBF75AFCFBF7A5FE094E05462146706819
:1049E000FBF758FC04462846FBF76FFE3168FBF7DF
:1049F00051FC2146FBF7F6FBBDE87040FBF791BE8A
:104A00009401002008B560B120208DF80000282016
:104A10008DF8010030208DF8020038208DF8030059
:104A200004E0A32204216846FBF7BDFB6A4604218B
:104A300040F69E2001F06AFE01F028FB08BD000050
:104A40003EB5044602208DF80000CA208DF8010012
:104A5000E3208DF8020009208DF803006A46042146
:104A6000682001F053FEA3208DF80000610609D5EF
:104A7000C0218DF80110C8218DF80210C2218DF8D7
:104A8000031005E08DF801008DF802008DF8030099
:104A900014F4C07F09D0C4218DF80410CC218DF806
:104AA0000510C6218DF8061005E08DF804008DF87C
:104AB00005008DF806008DF808008DF807008DF8C8
:104AC00009006A460A2140F6A72001F01FFEA00750
:104AD0004FF0D80503D020208DF8000001E08DF8BC
:104AE00000506A46012140F6B62001F00FFEA006F4
:104AF00001D5012000E0002000F08EF814F4C07F02
:104B00001ED0E0050AD5B2208DF800008B208DF86C
:104B10000100B6208DF802009B2009E0B0208DF83E
:104B2000000080208DF80100B4208DF80200902054
:104B30008DF803006A46042140F6A22001F0E6FD4C
:104B4000E1074FF40B6022D0F8218DF800106A467F
:104B5000012101F0DBFDFA21072000F039FB0720DD
:104B600000F004FB012000F021FB642000F0C4FBF6
:104B70004FF4FA7000F0D0FBC821254800F0BEFACF
:104B8000282000F0D3FA0A2000F0E0FA05E08DF8C2
:104B900000506A46012101F0B9FDA00703D5D920D4
:104BA0008DF8000001E08DF800506A46012140F2C6
:104BB0003D7001F0ABFD600701D5012000E0002051
:104BC00000F048F8E00601D5012000E00020FFF7E2
:104BD00019FF104D44F00800688101F057FA0020D9
:104BE000A873600601D50620A87314F4C07F02D014
:104BF000A87B801DA87314F0140F02D0A87B10307E
:104C0000A873A00702D0A87B001DA87300203EBD9A
:104C100009E3CA026C0300200EB54FF4976310B18C
:104C200006A107C901E008A207CA8DE807006A4685
:104C30000921184601F06AFD0EBD0000B8AAB38D27
:104C4000B4980D355D000000B8AAAAAAB088C3C503
:104C5000C700000008B560B1C0208DF80000C22078
:104C60008DF80100C4208DF80200C6208DF80300E5
:104C700004E08B2204216846FBF795FA6A4604217A
:104C800040F6982001F042FD01F000FA08BD000056
:104C9000C8234FF48062024940F6F63001F0D8B8DC
:104CA000E47100082DE9FF4F89B01746DDE916527F
:104CB00000244C4E884681462C80A246B07B694633
:104CC00001F072F94FF0FF3B18B158460DB0BDE846
:104CD000F08F708910F0140F3CD0009909BA21F0C0
:104CE000FF039DF803100B433B6001991B1409BAA5
:104CF00021F0FF029DF807105B430A437A60029996
:104D00009DF80B4009BA21F0FF012143B960039CD3
:104D1000091424BA24F0FF0C9DF80F4012144CEA39
:104D2000040CC7F80CC04FEA2C47494302FB02327F
:104D300007FB071111441024A1F17061B1F1007F4C
:104D400004D901F0A3F9A5F800A0BEE7298841F431
:104D5000807129804206694611D50A19A41D13885D
:104D60005BBAA8F8003053885BBAA8F80230928882
:104D700052BAA8F804202A8842F008022A8010F4C7
:104D8000C07F11D00A19A41D13885BBAA9F800309E
:104D900053885BBAA9F80230928852BAA9F8042065
:104DA0002A8842F070022A80800716D00C44E078EE
:104DB00000F0C00500F03F016078C00706D0C808C9
:104DC00001F007013268491C02B190476078000782
:104DD00003D5716809B1A80988470C9800F084FDD3
:104DE000002073E76C0300202DE9FF41044603A86F
:104DF00000F0E4FEBDF80C00410CC3032F4802890B
:104E000002F00300550754F8200000D54042C2F3D9
:104E1000C105960654F8255000D56D42C2F381169F
:104E2000D20554F8264000D56442A0FB0367C217A0
:104E300002FB037200FB0120820042EA9670A5FB90
:104E40000367EA1702FB037205FB0122950045EA9E
:104E50009672A4FB0367E51705FB037304FB01319E
:104E60008B0043EA9671030E8DF80030030C8DF829
:104E70000130030A8DF802308DF80300100E8DF812
:104E80000400100C8DF80500100A8DF80600080EBD
:104E90008DF80800080C8DF80900080A8DF80A0042
:104EA0008DF807208DF80B106A460C214FF4257001
:104EB00001F02CFC04B0BDE8F08100006C03002080
:104EC00030B5044613A285B007CA8DE807004FF03D
:104ED000FF35C82C16D8C820B0FBF4F1491E080ACB
:104EE0008DF80C008DF80D1003AA022140F2162057
:104EF00001F00CFC30B96A460C2140F6C12001F0EB
:104F000005FC10B1284605B030BD0548848100205D
:104F1000F9E70000FEF2ABC4AAF1DFDFBBAFDFDFD1
:104F20006C030020F8B53049098901F0030250F8FC
:104F300022404A0700D56442C1F3C1028B0650F8F3
:104F4000222000D55242C1F3811350F82330C80506
:104F500000D55B42254984FB0140850045EA9470F9
:104F600082FB0142A40F44EA820483FB0121950FD6
:104F700045EA8105010E8DF80010010C8DF8011035
:104F8000010A8DF802108DF803006A4604214FF4DF
:104F9000747001F0BBFB4FF0FF3688B9200E8DF81E
:104FA0000000200C8DF80100200A8DF802008DF819
:104FB00003406A4604214FF4757001F0A7FB08B165
:104FC0003046F8BD280E8DF80000280C8DF8010041
:104FD000280A8DF802008DF803506A4604214FF428
:104FE000767001F093FBF8BD6C03002009E3CA0260
:104FF0002DE9FF4104463CA004F003030068029041
:105000003AA0006803903AA006683AA0056802A892
:10501000C15C8DF80010C4F3C101425C8DF8012021
:10502000C4F38112805C8DF8020003A8C35C8DF884
:105030000430415C8DF80510805C8DF806006A46EE
:10504000032140F2264001F061FB4FF0FF37E0BB47
:1050500001AA032140F22A4001F058FBA8BBCDE988
:10506000006560070BD59DF8000040F001008DF849
:1050700000009DF8040040F001008DF80400A00637
:105080000BD59DF8010040F001008DF801009DF85E
:10509000050040F001008DF80500E0050BD59DF8F6
:1050A000020040F001008DF802009DF8060040F07B
:1050B00001008DF806006A4603214FF4886001F074
:1050C00025FB10B901AA032100E004E040F23140C1
:1050D00001F01CFB18B1384604B0BDE8F081064869
:1050E00004810020F8E700004CCD6C000CC92C00B6
:1050F00036567600264666006C0300204FF47A721E
:1051000090FBF2F008B54843010E8DF80010010C39
:105110008DF80110010A8DF802108DF803006A461F
:1051200004214FF4AE7001F0F1FA08BD0521B0FB87
:10513000F1F008B5010A8DF800108DF801006A46FB
:1051400002214FF4AD7001F0E1FA08BD0521B0FB7A
:10515000F1F008B5010A8DF800108DF801006A46DB
:1051600002214FF4AC7001F0D1FA08BD08B500215E
:105170008DF80010C10702D030218DF80010810792
:1051800005D59DF8001041F00C018DF80010400786
:1051900005D59DF8000040F003008DF800006A4638
:1051A00001214FF4A47001F0B1FA08BD08B560B157
:1051B000042800D90420401E8DF800006A46012111
:1051C00040F24F1001F0A2FA08BD0120F3E7000001
:1051D0002DE9FC41054640074FF0FF367CD0B1F584
:1051E000C86F79D80846FBF779FA3E49FBF784F88F
:1051F000074601A800F0C4FC9DF80400022806D070
:1052000004280DD008282ED0102865D134E00E21B6
:105210003846FBF7AFF8FBF79DFA84B2324907E056
:105220000D213846FBF7A6F8FBF794FA2F4984B214
:105230003846FBF72FF8FBF78DFA210A8DF800109E
:1052400080B28DF80140010A8DF802108DF803003C
:10525000E8076C4620D0224602214FF4EA7001F0A4
:1052600055FAC8BB11E00C213846FBF783F8FBF771
:1052700071FA84B21E49DBE70B213846FBF77AF856
:10528000FBF768FA84B21B49D2E7A21C02214FF453
:10529000927001F03BFAF8B9A8070DD56A460221D1
:1052A0004FF4EC7001F032FAB0B9A21C02214FF4B5
:1052B000947001F02BFA78B9680710D56A4602217C
:1052C0004FF4EE7001F022FA30B9A21C02214FF423
:1052D000967001F01BFA10B13046BDE8FC81002049
:1052E000FBE7000000004843000040460000C045C6
:1052F000000040450000C0440521B0FBF1F008B5B6
:10530000010A8DF800108DF801006A4602214FF461
:10531000EF7001F0FBF908BD0521B0FBF1F008B515
:10532000010A8DF800108DF801006A4602214FF441
:10533000ED7001F0EBF908BD13B54FF0FF3301221A
:1053400069460248FDF718FB00981CBD28030020A1
:105350002DE9FE430646264801AB042240680D2194
:105360000078FDF769FD10B10720BDE8FE839DF8C8
:1053700004101C2000EAD1029DF80710DFF8749099
:10538000C1F301131A438DF800209DF80520C1F3E5
:10539000810300EAD2021A438DF801209DF806200D
:1053A00001F0030100EAD20008430024124F8DF8F7
:1053B0000200A0466D46285D10B146F824900AE030
:1053C00046F824800DE000BF56F824003946FAF76D
:1053D00061FF46F82400285D401E10F0FF002855AC
:1053E000F2D1641CE4B2032CE5D30020BDE7000039
:1053F000380100207B14AE3E1D5A843F2DE9FE4F3C
:1054000005460120C14E8DF800004FF000088DF8D0
:10541000018030680C461746817C70686B4602221A
:105420000078FDF73FFD4FF0FF3A00287AD1C82001
:10543000FBF7BAFE8DF8008030686B460122C17B15
:1054400070680078FDF72EFD0028EFD130686B46BC
:105450000122417970680078FDF724FD0028E5D12C
:1054600030686B460122817C70680078FDF71AFD78
:105470000028DBD130686B460122C17D706800785E
:10548000FDF710FD0028D1D130686B46012201796B
:1054900070680078FDF706FD0028C7D14FF00C09B1
:1054A0008DF8009030686B460122017970680078B1
:1054B000FDF7F8FC002835D10F20FBF775FEB06A28
:1054C0006B460122407A8DF8000030688178706860
:1054D0000078FDF7E7FC002824D1B06A6B46012272
:1054E000007A8DF800003068417870680078FDF728
:1054F000D9FC002873D1B06A807A0FB140F0E00087
:105500008DF8000030686B46012281797068007860
:10551000FDF7C8FC002862D12FB1B06AC07A40F014
:10552000E00001E04AE018208DF8000030686B468A
:105530000122C17970680078FDF7B4FCF0BB17B1A7
:10554000C820FBF731FE40208DF8000030686B4624
:105550000122017970680078FDF7A4FC70BB782007
:105560008DF8000030686B46012241797068007840
:10557000FDF798FC10BB3220FBF716FE8DF800807B
:10558000306847466B464179706801220078FDF724
:1055900089FC98B931687068B046897A00786B46A2
:1055A0000222FDF749FC48B9BDF80000AF6040BADF
:1055B000B0FBF9F06F60C6B22F6000E00FE0A760AB
:1055C00067602760002739E0D8F80010D8F8040099
:1055D0006B46C97A00780C22FDF72EFC10B15046BC
:1055E000BDE8FE8FBDF80000236840BA02B2BDF8E6
:1055F0000200BDF804101A44226040BA626800B28A
:105600001044606049BAA06809B20844A060BDF8BF
:1056100006002B6840BA02B2BDF808001A4440BA2E
:1056200001B2BDF80A002A606A6840BA1144696094
:10563000A96800B208447F1CFFB2A860B742C3D378
:1056400028688322C117090441EA1041000400239D
:10565000FAF768FD32460023FAF764FD28606868AF
:105660008322C117090441EA104100040023FAF71C
:1056700059FD32460023FAF755FD6860A868832279
:10568000C117090441EA104100040023FAF74AFD5A
:1056900032460023FAF746FDA86020684FF4006503
:1056A000C117090441EA104100042A460023FAF711
:1056B00039FD32460023FAF735FD206060682A463E
:1056C000C117090441EA104100040023FAF72AFD3A
:1056D00032460023FAF726FD6060A0682A46C1170B
:1056E000090441EA104100040023FAF71BFD324689
:1056F0000023FAF717FDA060002802DDA0F5803036
:1057000001E000F58030A060002069E7380100204A
:105710002DE9F84F81462E488846002540686B46A3
:10572000032200780D21FDF787FB10B10720BDE8AB
:10573000F88F9DF80000002400F01F008DF8000095
:105740009DF801006FF00F0B00F01F008DF80100B5
:105750009DF802006E4600F01F008DF802004FF029
:10576000010A00BF59F8241058F82400081A00D57F
:105770004042FAF7AAFF5946FAF7FCFD0746305DAA
:10578000C0B1144802E01449FAF784FD315D491EA6
:1057900011F0FF013155F6D101463846FAF7ACFD5C
:1057A0004FF07E51FAF770FD0C4920F0004088421E
:1057B00005DC07E00A483844B0F1D97F02D90AFA7B
:1057C00004F00543641C032CCCDB2846AFE7000043
:1057D000380100200000C84154E3853F295C0F3E9A
:1057E0000000E0BE00B5024600F00DF80346D01CF4
:1057F00000F009F843EAC003901D00F004F843EA02
:10580000801080B200BD90F90010002902DD4FF039
:105810000000704702DA4FF00400704790F9011061
:10582000002902DD4FF00100704702DA4FF0050059
:10583000704790F90200002802DD4FF00200704727
:1058400002DA4FF0060070474FF007007047000083
:10585000FBF7F8FDFDF782FFFDF7F2FBFDF774FBA8
:10586000FDF74AFBFDF702FCFDF758FCFDF78CFC49
:10587000FDF7BEFCFDF7F2FC002210211348FBF7F8
:105880009AFD00BF00F02AF90028FBD1FEF704F8CA
:105890000FA0FEF76FFA00224FF400510D48FBF7FE
:1058A0008AFDFDF7A9FDFDF7CDFE01220A490B484F
:1058B000FDF71AF80A4C00250A48FBF7B4FD2078DA
:1058C0000028F9D0FDF7B4FD2570F5E70008014088
:1058D0004F4B0A0000100140010000202803002067
:1058E00005000020FC010020704700002DE9F04178
:1058F000124C20F00101002594F8240010B1002082
:10590000BDE8F081A07A4FF0FF3668B10840277CEF
:105910002074884200D0354641B1012000F064FF78
:1059200000F0B4FB38B127743046E9E7207D00B1C0
:10593000012000F059FF2846E2E70000380100206E
:105940002DE9F74F8EB00CA902A8CDE900010BABF1
:1059500003AA09A907A8FFF7A5F918B1012011B0FA
:10596000BDE8F08FBDF80800C0057DD50398FAF7B3
:10597000ACFE6FF01D042146FAF7FCFC8246049849
:10598000FAF7A3FE2146FAF7F5FC81460598FAF7E7
:105990009CFE2146FAF7EEFC80460698FAF795FE43
:1059A0002146FAF7E7FC054601215046FAF7E2FCEA
:1059B00006464146FAF76EFC04464FF04041484621
:1059C000FAF768FC07462946FAF764FC2146FAF71D
:1059D00009FCFAF7ECFEFEF7F1FC4FF0663B5A4685
:1059E0003D4BFAF77AFDFAF7F5FE0E9908600121B2
:1059F0004046FAF7BFFC41460090FAF74BFC0446DC
:105A000038464946FAF746FC2146FAF73DFC4FF086
:105A10007E51FAF7E7FBFAF7CAFE07460C46304616
:105A20004946FAF737FC064629460098FAF732FC51
:105A30003146FAF7D7FBFAF7BAFE3A462346FEF7A5
:105A400005FF5A46244BFAF748FDFAF7C3FE0F99B3
:105A5000086029460846FAF71DFC074641460846F5
:105A6000FAF718FC064600E034E049460846FAF723
:105A700011FC044651460846FAF70CFC2146FAF799
:105A8000B1FB3146FAF700FC3946FAF7FDFBFAF7AD
:105A90008EFE06460C4629465046FAF7FBFB0546A5
:105AA00041464846FAF7F6FB2946FAF79BFB0121E7
:105AB000FAF760FCFAF77BFE32462346FEF7C6FE95
:105AC0005A46054BFAF709FDFAF784FE109908606B
:105AD000002044E7022042E766A64C4010B5FCF7E0
